:100000003AC054C053C052C051C050C04FC04EC07F
:100010004DC004CA4BC04AC049C048C047C046C0D2
:1000200045C044C043C0FF81899989899DFFFF81F4
:10003000998589919DFFFF81BD8589A599FFFF81E4
:10004000A1A9A9BD89FFB7015203F6008A010003E7
:10005000030006030203010101010000070202037D
:100060000007040301010001070101030004070365
:1000700002020007010011241FBECFE5D4E0DEBF5D
:10008000CDBF10E0A0E6B0E0E0EAFAE102C00590E2
:100090000D92A437B107D9F710E0A4E7B0E001C092
:1000A0001D92A23DB107E1F706D0F8CCA9CFBCD094
:1000B000B5D0FDD808951F93CF93DF93F8DF8DD08F
:1000C0008EE790E066E270E048E050E04BDCC0E094
:1000D000D0E017E0989B02C00AC0B3D0989BFDCF38
:1000E00021971C161D067CF0C3E0D0E00CC0999B44
:1000F00002C016C0A6D0999BFDCFCE01019664E048
:1001000070E0B0DBEC01BE0193E0660F771F9A95BB
:10011000E1F76A5D7F4F8EE790E048E050E022DC37
:100120009C9B02C014C08DD09C9BFDCF82B7819F49
:10013000C001112461E170E095DB09DCFE01EE0FE6
:10014000FF1FE05AFF4F0190F081E02D099579D013
:10015000C1CFDC012091740030917500243031054D
:10016000C4F5F901EE0FFF1FEA58FF4FB183A083DA
:1001700012968D919C911397892B59F18D919C9199
:100180001197892B29F486EF90E011969C938E931A
:1001900014968D919C911597892B31F486EF90E000
:1001A00015969C938E93149716968D919C91179704
:1001B000892B31F486EF90E017969C938E931697D7
:1001C0002F5F3F4F309375002093740021E030E0A3
:1001D00002C020E030E0C901089586E490E0B9DF74
:1001E0000895809174009091750008950895CF93BB
:1001F000DF93EC01E881F981099542D0EC81FD8122
:100200000995EA81FB810995882329F0EE81FF8118
:10021000099517D0F2CFDF91CF9108958FE785BB75
:1002200014BA089583B308958FEF88BB87BB12BAC1
:1002300081BBEEE7F0E0119280E0E638F807D9F7ED
:10024000089520E030E061E070E04AEF50E0AFEF69
:10025000F901E258FF4F808182BBCB01022E02C020
:10026000880F991F0A94E2F7809588BBCA0101970D
:10027000F1F7A8BB2F5F3F4F2830310549F70895AC
:10028000EEE7F0E0119280E0E638F807D9F708953C
:100290008091D0009091D100181619068CF180E160
:1002A00090E09093D1008093D0004091CE00509187
:1002B000CF0083E090E0042E02C0880F991F0A94BB
:1002C000E2F780952091850082238093850098999C
:1002D00009C04630510534F44F5F5F4F5093CF0053
:1002E0004093CE0099990CC08091CE009091CF00A0
:1002F000181619062CF401979093CF008093CE0026
:100300008091D0009091D10001979093D10080937B
:10031000D00008958091680080937E0080916900EC
:1003200080937F0080916A0080938000E091C200FA
:10033000F091C300E258FF4F81E090E00090CA00C6
:1003400002C0880F991F0A94E2F72081282B20838E
:1003500083E090E00090CE0002C0880F991F0A94BD
:10036000E2F720918500282B20938500089580E1F5
:1003700090E09093D1008093D00080E290E0909341
:10038000C7008093C60083E090E09093CF008093F5
:10039000CE009093CB008093CA0086E090E09093CB
:1003A000C3008093C2006CDF089583E090E09093D7
:1003B000CF008093CE009093CB008093CA0086E05C
:1003C00090E09093C3008093C2008FEF80936D0004
:1003D000809368008093690080936A0051DF0895DC
:1003E0002091C2003091C3002150304023303105AC
:1003F00008F068C0A0916D00AF3F09F063C0809124
:10040000C6009091C700181619060CF05BC0F901E0
:10041000E859FF4F7081472F50E02091CA0030917A
:10042000CB00CA01022E02C0959587950A94E2F787
:1004300080FF04C081E080936D0026C060916C0055
:10044000613081F42F5F3F4FCA01022E02C09595A3
:1004500087950A94E2F780FF21C060936D00A09316
:100460006C0012C06F3FD1F421503040CA01022EFF
:1004700002C0959587950A94E2F780FF0FC081E04E
:1004800080936D0080936C0081E090E002C0880F43
:10049000991F2A95E2F780958723808380916900D0
:1004A00090916800892B90916A00892B59F4809172
:1004B0006B008B3018F010926B0003C08D5F80933F
:1004C0006B0073DF0895CF93DF939C9909C08091EF
:1004D000C6009091C70002979093C7008093C60012
:1004E0008091C6009091C700181619060CF4CEC072
:1004F00020916B0080E290E0821B91099093C700ED
:100500008093C6006091C2007091C3004091CA0000
:100510005091CB00FB01E258FF4F81E090E0042EA8
:1005200002C0880F991F0A94E2F7809520818223E8
:100530008083141615061CF081E080936C00473010
:1005400051051CF08FEF80936C00161617061CF0F7
:1005500081E080936D006630710561F52091CE00D9
:100560003091CF004217530729F0F90131964E1709
:100570005F0721F48FEF80936D001CC060916C00C9
:1005800016164CF4CA0101968217930721F48FEFD7
:1005900080936D000CC067FF49C0415050404E171A
:1005A0005F0709F043C08FEF80936D0081E0809377
:1005B0006C003CC067307105CCF120916E00215079
:1005C00020936E008091CE009091CF009093CB004D
:1005D0008093CA0086E090E09093C3008093C200AD
:1005E0008FEF80936D00222329F483E080936E00C7
:1005F000DCDE1BC0223019F461E070E002C060E074
:1006000070E083E0660F771F8A95E1F76A5D7F4FA0
:100610008EE790E048E050E0A5D9C0E0D0E001C00E
:1006200010DE2196C238D105D9F72ADE2091CA0002
:100630003091CB00121613061CF081E080936C0001
:10064000273031051CF08FEF80936C004091C20081
:100650005091C300141615061CF081E080936D00C4
:1006600080916D00992787FD9095840F951F909339
:10067000C3008093C20080916C00992787FD9095FC
:10068000820F931F9093CB008093CA008091C60085
:100690009091C70001979093C7008093C600DF91A7
:1006A000CF91089564DE9CDE0EDFF2DD33DEC9DD1E
:1006B000FACF8091C8009091C900181619060CF461
:1006C00058C080E190E09093C9008093C800989949
:1006D00020C01092C5001092C40090919100E3E9EF
:1006E000F0E020E030E004C08191982B2F5F3F4F75
:1006F00023303105CCF397FD09C08091CE00909155
:10070000CF0001969093CF008093CE00109291007D
:100710000EC099990CC08091CE009091CF00181610
:1007200019062CF401979093CF008093CE0040914E
:10073000CE009091960083E0989FF0011124E25B37
:10074000FF4FA3E9B0E020E030E00CC0849190E0DE
:10075000042E02C0880F991F0A94E2F78D932F5F31
:100760003F4F3196233031058CF33093C5002093F1
:10077000C4009C9903C081E0809392008091920014
:10078000813069F49C9B0BC08091960090E00196AB
:100790006DE070E067D8809396001092920080918F
:1007A000C8009091C90001979093C9008093C80038
:1007B0000895A9E8B0E0EEE7F0E020E030E004C002
:1007C0008D9181932F5F3F4F28303105CCF3E0911D
:1007D000C000F091C100E558FF4FA3E9B0E020E070
:1007E00030E006C080819D91892B81932F5F3F4F20
:1007F00023303105BCF33093C5002093C400089525
:1008000083E090E09093CF008093CE001092C100DF
:100810001092C00098D86DE019D89093960040913E
:10082000CE0083E0989FF0011124E25BFF4FA3E923
:10083000B0E020E030E00CC0849190E0042E02C0D3
:10084000880F991F0A94E2F78D932F5F3F4F3196DF
:10085000233031058CF33093C5002093C4000895F4
:100860008091D0009091D1001816190684F180E291
:1008700090E09093D1008093D00090919500E0910A
:10088000C000F091C100DF01AA57BF4F13968C91B1
:10089000139789239F012F5F3F4F8823A1F0E857CB
:1008A000FF4F8081892B8083F901EA57FF4F8081B8
:1008B00090919400892B80838C9190919300892B47
:1008C0008C939EDF04C03093C1002093C0008091C0
:1008D000D0009091D1000297E4F48091C0009091F3
:1008E000C1000897B1F48091950090919000892BF8
:1008F000809390008091940090918F00892B809339
:100900008F008091930090918E00892B80938E00B0
:1009100077DF8091D0009091D10001979093D10022
:100920008093D0000895CF93DF938091D000909171
:10093000D10002970CF099C08AE090E09093C50036
:100940008093C400C1E0D0E076C0EA57FF4F8081B9
:100950008F3F09F067C01092BF001092BE003AC0EE
:10096000EA57FF4F9E0102C0220F331F8A95E2F71C
:10097000C9018095208182238083A9E8B0E0EEE759
:10098000F0E020E030E004C08D9181932F5F3F4F75
:1009900028303105CCF31092CD001092CC000AC063
:1009A00050DC8091CC009091CD0001969093CD00C9
:1009B0008093CC008091CC009091CD000B9784F374
:1009C0005FDC8091BE009091BF0001969093BF00C4
:1009D0008093BE008091BE009091BF00E091C40062
:1009E000F091C500883091050CF4BACFF093BF00A8
:1009F000E093BE009F01DF01AB57BF4F07C08C9152
:100A000011968C9311972150304011972330310566
:100A1000B4F73093BF002093BE003196F093C50029
:100A2000E093C4008091C4009091C5000197909319
:100A3000C5008093C400E091C400F091C500E3308C
:100A4000F1050CF082CF80918800882371F0E6E8F0
:100A5000F0E080E090E002C0119201968B309105A9
:100A6000DCF39093C5008093C400DF91CF9108958B
:100A700080E290E09093D1008093D00080E190E0FC
:100A80009093C9008093C800FBDBBADE12DEE8DE7B
:100A90004ADF8FDED6DBF4DBF9CF8091C80090917E
:100AA000C90001979093C9008093C80018161906D1
:100AB0004CF188E090E09093C9008093C800989929
:100AC00006C080919900833011F084E00FC099999D
:100AD00006C080919900843011F083E007C09A9994
:100AE00008C080919900813021F082E080939900C4
:100AF00008959B9907C080919900823019F081E098
:100B0000809399000895CF93DF93EB01FA0182302F
:100B1000A1F0833018F4813059F505C08330B1F06D
:100B2000843031F51DC0808191810197918380834C
:100B300097FF1EC087E090E006C0808191810196FA
:100B400068E070E08FD69183808312C0888199819C
:100B500001979983888397FF0BC087E090E006C0D8
:100B600088819981019668E070E07CD699838883BA
:100B7000DF91CF910895CF93DF93EB01FA0182309B
:100B800089F0833018F4813059F505C08330B1F015
:100B9000843031F51AC080819181019668E070E05F
:100BA00061D609C08081918101979183808397FFED
:100BB00017C087E090E09183808312C0888199817B
:100BC000019668E070E04ED609C08881998101974E
:100BD0009983888397FF04C087E090E09983888396
:100BE000DF91CF9108958091C6009091C700019741
:100BF0009093C7008093C60097FF18C08AE090E0EA
:100C00009093C7008093C600E091C200F091C300AA
:100C1000E258FF4F81E090E00090CA0002C0880FC8
:100C2000991F0A94E2F72081282720830895AF9224
:100C3000BF92CF92DF92EF92FF920F931F93DF93B9
:100C4000CF9300D000D0CDB7DEB72091CE008091F9
:100C5000CF0029838A83E091C000F091C100FC831A
:100C6000EB83E258FF4F41E050E0CA0102C0880F19
:100C7000991F2A95E2F79C018081822B80835093F3
:100C8000C5004093C400009197001091980093E034
:100C9000A92EB12CAC0EBD1E6E010894C11CD11C36
:100CA00081E0E82EF12C1DC0E756FF4F8081B60190
:100CB000A50161DFEB81FC81E258FF4F97010980BC
:100CC00002C0220F331F0A94E2F78081822B8083B7
:100CD0008091C4009091C50001969093C5008093C7
:100CE000C400E091C400F091C500E017F107E4F200
:100CF0000F900F900F900F90CF91DF911F910F9158
:100D0000FF90EF90DF90CF90BF90AF9008958FDF6E
:100D1000E091C200F091C300E258FF4F81E090E003
:100D20000090CA0002C0880F991F0A94E2F7208140
:100D3000282B208308D668E070E094D59093CB00F0
:100D40008093CA0000D668E070E08CD5FC019093D7
:100D5000C3008093C200E258FF4F808190E0009072
:100D6000CA0002C0959587950A94E2F780FDE2CF0C
:100D700087DA089587E090E09093CF008093CE00CB
:100D800085E090E09093C1008093C00083E090E004
:100D90009093980080939700E9E9F0E080E090E07C
:100DA00021E002C02193019683309105DCF39093FA
:100DB000C5008093C400ABDF80E290E09093D10047
:100DC0008093D0008AE090E09093C7008093C600A3
:100DD00088E090E09093C9008093C8000895EF9256
:100DE000FF920F931F93DF93CF9300D000D0CDB726
:100DF000DEB78091CE009091CF009A838983809155
:100E0000C0009091C1009C838B8381E090E090931F
:100E1000C5008093C40023E0E22EF12CEC0EFD1EF1
:100E20008E010F5F1F4F22C0E756FF4F8081B80130
:100E3000A701A1DE29813A818091CE009091CF0057
:100E40002817390751F42B813C818091C000909183
:100E5000C1002817390709F48DDF8091C4009091F3
:100E6000C50001969093C5008093C400E091C40032
:100E7000F091C5008091970090919800E817F907CC
:100E80009CF20F900F900F900F90CF91DF911F91D8
:100E90000F91FF90EF9008958091D0009091D10034
:100EA00001979093D1008093D00097FF24C080E2F7
:100EB00090E09093D1008093D000209197003091E2
:100EC000980021503040F901E856FF4F05C080815D
:100ED000818321503040319712161306C4F33093AA
:100EE000C5002093C400809199006EEC70E040EC46
:100EF00050E009DE74DF08958091D0009091D10018
:100F0000181619063CF1809197009091980044972B
:100F100009F430DF2091CE003091CF008091CA00DB
:100F20009091CB0028173907A9F42091C000309187
:100F3000C1008091C2009091C3002817390751F475
:100F400080919700909198000196909398008093DB
:100F50009700DDDE08950EDF93D99FDDCDDF9CDFA6
:100F600042DE65DE6ED9F8CF8091D0009091D1003D
:100F700001979093D1008093D00097FF7BC08AE0C7
:100F800090E09093D1008093D000989918C0609120
:100F9000CE007091CF00663071058CF443E050E0D4
:100FA000CA01062E02C0880F991F0A94E2F78095A5
:100FB0002091850082239B012F5F3F4F19C0999993
:100FC00024C06091CE007091CF0016161706ECF485
:100FD00043E050E0CA01062E02C0880F991F0A9410
:100FE000E2F780952091850082239B0121503040BB
:100FF0003093CF002093CE0002C0440F551F2A9596
:10100000E2F7842B8093850008959C9933C08091EA
:10101000C2009091C30097FF2DC04091AF00809116
:10102000CE009091CF00442311F09C0103C09C019D
:101030002F5F3F4F3093CB002093CA0081E04827B9
:101040004093AF0086E090E09093C3008093C2008D
:101050008AE090E09093C7008093C60081E090E022
:1010600002C0880F991F2A95E2F720918400282B4F
:101070002093840008956091BE009091BF0040913C
:10108000AD005091AE0020E030E01EC0D901A25862
:10109000BF4F8C918F3FB1F4F90105C011968C912F
:1010A00011978D933196CF016E2FE417F5071CF43D
:1010B000E630F1059CF3E258FF4F1082215030409A
:1010C000415050402F5F3F4F24173507FCF260938B
:1010D000BE009093BF005093AE004093AD0030939C
:1010E000C5002093C4000895E091C200F091C300B0
:1010F0008FEFEF3FF8070CF454C08091C600909139
:10110000C70001979093C7008093C60097FF49C01E
:101110008AE090E09093C7008093C6008FEFEF3F86
:10112000F80709F43EC0309791F0AF0141505040AC
:101130006091CA00DA01A258BF4F8C9190E0062E50
:1011400002C0959587950A94E2F780FF15C08091BB
:10115000AD009091AE003196E817F9070CF4FC0150
:10116000F093AE00E093AD008FEF9FEF9093C3003C
:101170008093C20080DF089521E030E002C0220F9A
:10118000331F6A95E2F7E258FF4F822F80959081D6
:10119000892380835093C3004093C2008C91822B9B
:1011A0008C9308956DD81092AE001092AD0088EC2B
:1011B00090E09093C9008093C80083E090E0909302
:1011C000CF008093CE002AE030E03093D10020930E
:1011D000D0001092CB001092CA008FEF9FEF909337
:1011E000C3008093C2003093C7002093C60081E003
:1011F0008093AF0080918500886180938500089579
:101200008091C8009091C90001979093C900809384
:10121000C80097FF45C088EC90E09093C900809388
:10122000C8002091AD003091AE002093C4003093EF
:10123000C500C9019C01FC01E358FF4F05C0808136
:10124000818321503040319712161306C4F3309336
:10125000C5002093C40077D3282F30E02F3F3105FD
:10126000D1F380917E00822B80937E008F3F61F4CA
:101270002770307081E090E002C0880F991F2A9596
:10128000E2F7809580937E008091AD009091AE0052
:1012900001969093AE008093AD0008970CF082DF2A
:1012A000089580DF61DE20DFABDFCBD7FBCF10926C
:1012B000B0001092B1001092B2001092B3001092E0
:1012C000B4001092B5001092B6001092B7001092C0
:1012D000B8001092B9001092BA001092BB001092A0
:1012E000BD001092BC0085E083BF89B7816089BFD3
:1012F000789408956091B0007091B1008091B2002F
:101300009091B3008ED12FE632E143E853E43BD213
:101310005CD19B01AC01CA0108956093B400709345
:10132000B5008093B6009093B7002091B000309143
:10133000B1004091B2005091B300260F371F481FF3
:10134000591F2093B8003093B9004093BA005093CE
:10135000BB0008956091B4007091B5008091B60013
:101360009091B7000895EF92FF920F931F937B0126
:101370008C01611571058105910571F052D12FE63F
:1013800032E143E853E4B5D0882334F486E0E82E14
:1013900081E0F82E012D112DC801B70142D12FE6B1
:1013A00032E143E853E4A9D010D16093B4007093C4
:1013B000B5008093B6009093B7002091B0003091B3
:1013C000B1004091B2005091B300260F371F481F63
:1013D000591F2093B8003093B9004093BA0050933E
:1013E000BB001F910F91FF90EF9008956091B400A2
:1013F0007091B5008091B6009091B70012D12FE6A0
:1014000032E143E853E4BFD1E0D09B01AC01CA0113
:1014100008959093BD008093BC0008951F920F9291
:101420000FB60F921124EF92FF920F931F932F93F9
:101430003F934F935F936F937F938F939F93AF935C
:10144000BF93EF93FF932091B0003091B100409192
:10145000B2005091B3002F5F3F4F4F4F5F4F20932B
:10146000B0003093B1004093B2005093B300E090CD
:10147000B400F090B5000091B6001091B700E114EF
:10148000F1040105110501F18091B8009091B900B6
:10149000A091BA00B091BB00281739074A075B0733
:1014A00099F42E0D3F1D401F511F2093B80030931B
:1014B000B9004093BA005093BB00E091BC00F0919A
:1014C000BD00309709F00995FF91EF91BF91AF9161
:1014D0009F918F917F916F915F914F913F912F914C
:1014E0001F910F91FF90EF900F900FBE0F901F90E4
:1014F0001895D4D008F481E008950CD00AC102D127
:1015000040F0F9D030F021F45F3F19F0EBC05111F9
:1015100034C1EEC00FD198F39923C9F35523B1F329
:10152000951B550BBB27AA2762177307840738F052
:101530009F5F5F4F220F331F441FAA1FA9F333D0B1
:101540000E2E3AF0E0E830D091505040E695001C65
:10155000CAF729D0FE2F27D0660F771F881FBB1F21
:10156000261737074807AB07B0E809F0BB0B802DFB
:10157000BF01FF2793585F4F2AF09E3F510568F047
:10158000B1C0FBC05F3FECF3983EDCF386957795E6
:101590006795B795F7959F5FC9F7880F911D969549
:1015A000879597F90895E1E0660F771F881FBB1FA5
:1015B000621773078407BA0720F0621B730B840B52
:1015C000BA0BEE1F88F7E0950895BCD088F09F57BE
:1015D00090F0B92F9927B751A0F0D1F0660F771F7F
:1015E000881F991F1AF0BA95C9F712C0B13081F05F
:1015F000C3D0B1E00895C0C0672F782F8827B85FA7
:1016000039F0B93FCCF3869577956795B395D9F7BF
:101610003EF490958095709561957F4F8F4F9F4FC9
:101620000895E89409C097FB3EF4909580957095D5
:1016300061957F4F8F4F9F4F9923A9F0F92F96E91E
:10164000BB279395F695879577956795B795F11193
:10165000F8CFFAF4BB0F11F460FF1BC06F5F7F4F30
:101660008F4F9F4F16C0882311F096E911C0772342
:1016700021F09EE8872F762F05C0662371F096E84B
:10168000862F70E060E02AF09A95660F771F881F1A
:10169000DAF7880F9695879597F90895990F0008BE
:1016A000550FAA0BE0E8FEEF16161706E807F90734
:1016B000C0F012161306E407F50798F0621B730BCF
:1016C000840B950B39F40A2661F0232B242B252B50
:1016D00021F408950A2609F4A140A6958FEF811DF3
:1016E000811D089597F99F6780E870E060E0089594
:1016F0009FEF80EC089500240A941616170618062A
:101700000906089500240A94121613061406050605
:101710000895092E0394000C11F4882352F0BB0F96
:1017200040F4BF2B11F460FF04C06F5F7F4F8F4FF9
:101730009F4F089557FD9058440F551F59F05F3F34
:1017400071F04795880F97FB991F61F09F3F79F0E3
:1017500087950895121613061406551FF2CF469565
:10176000F1DF08C0161617061806991FF1CF8695E7
:101770007105610508940895E894BB2766277727CB
:10178000CB0197F908950BD0C4CFB5DF28F0BADFAD
:1017900018F0952309F0A6CFABCF1124EECFCADF06
:1017A000A0F3959FD1F3950F50E0551F629FF00174
:1017B000729FBB27F00DB11D639FAA27F00DB11DCD
:1017C000AA1F649F6627B00DA11D661F829F222756
:1017D000B00DA11D621F739FB00DA11D621F839FDD
:1017E000A00D611D221F749F3327A00D611D231FB3
:1017F000849F600D211D822F762F6A2F11249F5701
:1018000050408AF0E1F088234AF0EE0FFF1FBB1F23
:10181000661F771F881F91505040A9F79E3F5105C2
:1018200070F060CFAACF5F3FECF3983EDCF3869573
:1018300077956795B795F795E7959F5FC1F7FE2B6D
:10184000880F911D9695879597F90895991B79E0D2
:1018500004C0991F961708F0961B881F7A95C9F740
:101860008095089597FB092E07260AD077FD04D0AE
:101870000CD006D000201AF4709561957F4F089522
:10188000F6F7909581959F4F0895AA1BBB1B51E1D8
:1018900007C0AA1FBB1FA617B70710F0A61BB70BE0
:1018A000881F991F5A95A9F780959095BC01CD0185
:1018B0000895A0E0B0E0EEE5FCE09FC0EC01A88058
:1018C000B980CA80DB80A114B104C104D10441F401
:1018D00084E2A82E89EDB82E8BE5C82E87E0D82E9D
:1018E000C601B5012DE133EF41E050E063D027EAB6
:1018F00031E440E050E03FD07B018C01C601B501EE
:101900002DE133EF41E050E055D0CA01B9012CEE92
:1019100034EF4FEF5FEF2FD06E0D7F1D801F911FB3
:1019200097FF04C06150704080409048688379837D
:101930008A839B839B013F77C901CDB7DEB7EAE07D
:1019400078C0B7DF08958FE690E0B3DF0895A0E098
:10195000B0E080936F0090937000A0937100B093FB
:1019600072000895FB01DC0102C005900D92415008
:101970005040D8F70895629FD001739FF001829F75
:10198000E00DF11D649FE00DF11D929FF00D839F0E
:10199000F00D749FF00D659FF00D9927729FB00DAB
:1019A000E11DF91F639FB00DE11DF91FBD01CF01BE
:1019B0001124089597FB092E05260ED057FD04D05B
:1019C0004BD00AD0001C38F45095409530952195A5
:1019D0003F4F4F4F5F4F0895F6F790958095709564
:1019E00061957F4F8F4F9F4F08952F923F924F9257
:1019F0005F926F927F928F929F92AF92BF92CF929F
:101A0000DF92EF92FF920F931F93CF93DF93CDB7A7
:101A1000DEB7CA1BDB0B0FB6F894DEBF0FBECDBF1F
:101A200009942A88398848885F846E847D848C84F0
:101A30009B84AA84B984C884DF80EE80FD800C81F9
:101A40001B81AA81B981CE0FD11D0FB6F894DEBFDC
:101A50000FBECDBFED010895A1E21A2EAA1BBB1B3C
:101A6000FD010DC0AA1FBB1FEE1FFF1FA217B3076A
:101A7000E407F50720F0A21BB30BE40BF50B661F80
:101A8000771F881F991F1A9469F760957095809544
:101A900090959B01AC01BD01CF010895F894FFCF53
:101AA00052033805AB075109FFFFFF0101FF030196
:041AB0000000000032
:00000001FF
