:080000000C94C9000C940000EF
:100008000C9400000C9400000C9400000C94000068
:100018000C9400000C9400000C9400000C94000058
:100028000C9400000C9400000C9400000C94000048
:100038000C9400000C9400000C9400000C94000038
:100048000C9400000C9400000C9400000C94000028
:100058000C9400000C9400000C9400000C94000018
:100068000103FFFFFF1000000000007C08107C0067
:10007800007C5400006C106C0000047C040000003C
:100088004854240000047C040000782478000038D8
:10009800446400007C540000000000047804000060
:1000A80038443800003C403C4000007C207C004440
:1000B8007C44007C08107C00000000000000003830
:1000C8004464000078247800007C087C00007C549C
:1000D80000000038443800003C403C00007C5400DC
:1000E800007C245800005C000000000000000000B4
:1000F8000048542400047C040078247800007C2400
:10010800580000047C040000005C010101010101A9
:1001180001010502050000000000000303000603BA
:1001280002030101010100000702020300070403A2
:10013800010100010701010300040703020200078F
:1001480001000000000000000000000000000000A6
:100158000500000000000018180000000302030357
:10016800010300030300030000020202020001026F
:100178000102010200020505020001002D4E414E58
:1001880000000100080282010000F894EE27EFBB8E
:10019800F1E0F5BFE5BFF8E1A895A4B7A77FA4BF34
:1001A800F0936000E09360008DE0A2E0BB27ED9340
:1001B8008A95E9F780E094E0A0E0B1E0ED9301973B
:1001C800E9F7EAE8F1E085919591009761F0A5914A
:1001D800B59105901590BF01F00105900D9201971A
:1001E800E1F7FB01F0CFE0E0EEBBEFEFEDBFE4E0BD
:1001F800EEBFC0E0D2E00C9477081A930A9301E0AE
:1002080010E0183058F40E942409EBB9E02F0E943E
:100218002A09000FEFEFE5B91F5FF3CF0EC01A935D
:100228000A9300E810E0183040F40BB90E94240942
:100238000E942A0906951F5FF6CF09911991089522
:100248001A9310E0183038F4E12F0E943209A0E028
:10025800A0831F5FF7CF19910895EF97EF97AF9796
:100268008AEAA3E0B0E0E8E6F0E00E943D0B0E94D5
:100278002F0B13E006E031E02FEF50E043E0E0E021
:10028800EF83AF81AB3108F5E0E0E887A885A830B7
:1002980058F4E8850E9432090E9436090E943C09F8
:1002A800E885EF5FE887F2CF0E9445090E9455096B
:1002B800AE81A13128F4B3DFEE81EF5FEE83F8CF92
:1002C800BFDFEF81EF5FEF83DCCF0E9445090E941B
:1002D8007809349B02C091DFFCCFB2DF013030F0E7
:1002E800043020F42F3F11F451300CF4BFC00E94A9
:1002F80099090E949E0921F021E00E94A90923C0C2
:10030800013010F0043008F021C0313041F4E12F01
:10031800EF5FA1E00E94F60A0E949E0909F406C058
:1003280021E03FEF0E94A909EF5F0DC03F3F29F48C
:100338000E94B4090E949E0909F408C021E031E036
:100348000E94A909E150A1E00E94BA09EC85AB8599
:10035800EA2BAD85EA2B11F00C943A02A985AB3053
:1003680010F40C941002E0E00E94C109AF81A132A0
:1003780018F5E0E0E887A885A83068F4E8850E94C9
:1003880032090E943609DE01DF960E94CD09E88510
:10039800EF5FE887F0CF0E9445090E945509AE81BA
:1003A800A13128F43CDFEE81EF5FEE83F8CF48DF20
:1003B800EF81EF5FEF83DACFE0E0EF83AF81AB311E
:1003C80008F5E0E0E887A885A83058F4E8850E9499
:1003D80032090E9436090E943C09E885EF5FE887E8
:1003E800F2CF0E9445090E945509AE81A13128F437
:1003F80016DFEE81EF5FEE83F8CF22DFEF81EF5F4C
:10040800EF83DCCF0E9445090E947809349B02C023
:10041800F4DEFCCF15DF2AC0E985ED5F0E94C10933
:10042800AF81AF3218F5E0E0E887A885A83068F416
:10043800E8850E9432090E943609DE011F960E9453
:10044800CD09E885EF5FE887F0CF0E9445090E9453
:100458005509AE81A13128F4E2DEEE81EF5FEE832B
:10046800F8CFEEDEEF81EF5FEF83DACF349B5250A7
:10047800513014F00C94F402A985E0E2EA1B5E2FD7
:10048800E02F0E9432090E94D309E095E121DB01A7
:10049800EC93112309F431E0173008F03FEF002303
:1004A80009F421E00630E9F4411721F0E42FEF5F69
:1004B800E11711F42FEF15C0313024F0A12FAF5FF1
:1004C8004A1709F003C02FEF3FEF0BC0303034F468
:1004D800A12FA150E42FEF5FEA1709F002C02FEF18
:1004E80031E0073010F40C94E802EA85E150EA871D
:1004F800142F06E02FEFAA85A230B9F40E94D6097E
:10050800E9E9E0930202E5E8E0930302E9E8E09311
:100518000402E1E90E94DD09AE81A13828F46DDE0C
:10052800EE81EF5FEE83F8CF8BDEAA85A130B1F4C0
:100538000E94D609E9E8E0930202E9E9E0930302A0
:10054800E9E8E09304020E94DD09AE81A13828F4AD
:1005580054DEEE81EF5FEE83F8CF72DEAA85A0301D
:1005680099F5E3E0EA8743E013E006E02FEFEFEFC9
:10057800EB87EC87ED87E0E0EF83AF81AF3220F5C2
:10058800E0E0E887A885A83070F4E8850E94320981
:100598000E943609DE01AF59BF4F0E94CD09E88598
:1005A800EF5FE887EFCF0E9445090E945509AE81A9
:1005B800AA3128F434DEEE81EF5FEE83F8CF40DE17
:1005C800EF81EF5FEF83D9CF112309F431E01730C2
:1005D80008F03FEF002309F421E0020F130F01C0D8
:1005E8005150AE85A03099F4E0E1EE870E94E80909
:1005F8000E94BA09309905C0A42FAF5FA73008F44C
:100608004F5F319903C0413008F0415003C0EE8577
:10061800E150EE87E0E0E887A885A33058F4E88544
:100628000E94EF09DE011B960E94CD09E885EF5F65
:10063800E887F2CFE02F0E9432090E94D309E1290E
:10064800DB01EC930E94E8090E94F609D6DD46CE4C
:10065800FF922D978BE0A2E0B0E0E2E1F1E00E948A
:100668003D0B0E942F0BFF2417E008E037E02EE037
:1006780057E040E20E94FC0919F4A885A33009F468
:1006880002C0E4E01AC00E94010A19F4A885A43047
:1006980009F402C0E3E011C00E94060A19F4A88513
:1006A800A13009F402C0E2E008C00E940B0A19F464
:1006B800A885A23009F402C0E1E0E887349B4350E2
:1006C800413014F00C942504E894F0F8A885A13082
:1006D80049F4E02FE1500E94320910800E949909E4
:1006E800E12109F41AC00E94100AAF81A33050F426
:1006F800E02FE2500E94150A0E94180AEF81EF5F6E
:10070800EF83F3CFE0E0EE83AE81A13828F475DD06
:10071800EE81EF5FEE83F8CF7CC0A885A23049F464
:100728000E94270AEF5FFD4F10800E949909E1217E
:1007380009F41AC00E94100AAF81A33050F4EF8167
:10074800E00F0E9432090E94180AEF81EF5FEF83E1
:10075800F3CFE0E0EE83AE81A13828F44EDDEE81E0
:10076800EF5FEE83F8CF55C0A885A33041F4E02FA2
:100778000E94320910800E94B409E12109F41FC0C7
:100788000E94100AAF81A33078F4E02FE1500E9454
:10079800150A0E942A0AAC91E12FE2500E94320AFF
:1007A800EF81EF5FEF83EECFE0E0EE83AE81A1381B
:1007B80028F423DDEE81EF5FEE83F8CF2AC0A88509
:1007C800A43059F4E02F0E9432091080E12FEF5F26
:1007D800A1E00E94F60AE12109F41EC00E94100A55
:1007E800AF81A33060F4E02FE1500E94150A0E9407
:1007F8002A0A0E94370AEF81EF5FEF83F1CFE0E02A
:10080800EE83AE81A13828F4F8DCEE81EF5FEE8349
:10081800F8CF16DD6894F0F8F0FE13C017E008E092
:1008280037E02EE0E0E0EF83AF81A51750F40E9497
:100838003A0AAE0FBF1FE1E0EC93EF81EF5FEF8361
:10084800F3CF413014F00C94850440E25F83AF810C
:10085800A13080F00E943A0AEA0FFB1F0F01EF81D6
:100868000E943F0ADE0118960E94CD09EF81E150EF
:10087800EF83EDCFA885A13011F401500EC0A885F3
:10088800A23011F40F5F09C0A885A33011F41150EC
:1008980004C0A885A43009F41F5FE02F0E94320924
:1008A8000E94D309E129DB01EC930E94420AA4309B
:1008B80039F4E22F0E9432090E944A0A3F5F20C0A1
:1008C8000E94420AA33039F4E22F0E9432090E94A2
:1008D8004A0A315015C00E94420AA23039F4E22F68
:1008E8000E9432090E944A0A2F5F0AC00E94420AE7
:1008F800A13031F4E22F0E9432090E944A0A2150A5
:1009080001C041507ADCB6CEE99789E3A0E0B0E0B7
:10091800EEE1F1E00E943D0B0E942F0B13E00FEF78
:1009280020E25EE040E10E944F0AA985A33040F42E
:100938000E945A0A0E945D0AE985EF5FE987F5CFB0
:10094800442359F540E1309915C0E0E0E987A985CD
:10095800A33060F40E945A0ADE011A96AE0FBF1F38
:10096800EC913E2BE985EF5FE987F1CF37FF1F5FF9
:1009780030E005C0319903C0113008F01150E0E0B3
:10098800E987A985A33040F40E945A0A0E945D0AAB
:10099800E985EF5FE987F5CF01C04150349902C07E
:1009A800E1E0EE83AE81A13011F4349901C008C0B2
:1009B800A52FAF5FEDE00E942C0B5E2FE0E0EE83E9
:1009C800222371F520E2E02F0E946D0AAE0FBF1FAF
:1009D800EC91AC85EA2311F10E94720A0E94760A12
:1009E800AC85EA2BD001EC930E947D0A0E94760A1E
:1009F800AB85EA2BD001EC930E94270A0E94760A65
:100A08000E94810AA985A33040F40E945A0A0E94D4
:100A18005D0AE985EF5FE987F5CF01C00F5F01C087
:100A28002150223010F4083009F021C0FE01FE9652
:100A38000F01E081AC85EA2BD001EC93FE01FD9615
:100A48000F01E081AB85EA2BD001EC93FE01FC9607
:100A58000F01E0810E94810AA985A33040F40E9419
:100A68005A0A0E945D0AE985EF5FE987F5CF2230CF
:100A780010F00C94B405EAE0E987A985A33010F4D6
:100A88000C94A0050E945A0ADE01D496AE0FBF1F2F
:100A9800AC91AF3F11F00C949C05E0E0E887A88585
:100AA800A83068F50E945A0ADE01D496EA0FFB1FA7
:100AB800BF011080E885A1E00E94BA09E0E0EF8359
:100AC800AF81A83068F4EF810E9432090F01EF81ED
:100AD8000E946D0A0E94CD09EF81EF5FEF83F0CF8E
:100AE800E0E0EF83AF81AB3028F487DBEF81EF5F85
:100AF800EF83F8CFA5DBE885EF5FE887D0CFE985FE
:100B0800E887A885A33090F0E885F0E0DE01D49668
:100B1800EA0FFB1F0F01E8850E943F0ADE01D49609
:100B28000E94CD09E885E150E887EBCFEAE0E98744
:100B3800E985E150E987A1CFEEA9E03089F0E0E04E
:100B4800E987A985AB3060F40E945A0ADE01D49681
:100B5800AE0FBF1FE0E0EC93E985EF5FE987F1CFC7
:100B6800E0E0E987A985A83068F4E9850E943209A0
:100B78000F01E9850E946D0A0E94CD09E985EF5FA2
:100B8800E987F0CFE0E0E987A985A33088F4E98513
:100B9800E00FE3500E943209BF0100800E945A0A08
:100BA800DE011A960E94880AE985EF5FE987ECCF93
:100BB8000E948F0AC5CEFF922897E0E0E883E98378
:100BC800EA83EB83EC83ED83EE83EF830E94310BA2
:100BD800FF2410E000E030E03131F0F030E00E9416
:100BE800FC0911F4173008F001C01F5F0E94010AC8
:100BF80011F4113008F401C011500E94060A11F4D2
:100C0800073008F001C00F5F0E940B0A11F4013091
:100C180008F401C0015001C03F5F349902C06894D4
:100C2800F0F8349B02C0F0FC01C00DC0E894F0F865
:100C38000E94270ADE011496EA0FFB1F0E94D309BF
:100C4800E125DB01EC9320E0283048F4E22F0E94F4
:100C5800EF09DE0114960E94CD092F5FF5CFE02F32
:100C68000E9432090E94D309E129DB01EC930E941A
:100C78008F0AB2CFAF978EE2A1E0B0E0E4E5F1E0F1
:100C88000E943D0B0E942F0B10E000E030E021E0B5
:100C980051E046E00E94FC09D1F4003011F0053023
:100CA800B1F40E94930A0E94270A0E949A0A1E2EF3
:100CB8000E94930A0E947D0A0E949A0A1E2A0E9494
:100CC800930A0E94720A0E949A0AE12909F002C056
:100CD80021E04AC00E94010AE9F4003011F0053011
:100CE800C9F40E94B4090E2E0E94270A0E949A0A8B
:100CF8001E2E0E94B4090E2E0E947D0A0E949A0A96
:100D08001E2A0E94B4090E2E0E94720A0E949A0A94
:100D1800E12909F002C020E027C00E94060A69F410
:100D2800103031F0133021F0153011F0163029F45D
:100D38000E94A10A0E94A80A09F002C022E014C079
:100D48000E940B0A79F4103031F0133021F015307D
:100D580011F0163039F40E94A10A0E943F0A0E943D
:100D68009A0A09F001C023E0EA85EF5FEA87AA85BD
:100D7800A13210F0AF3308F04BC0411768F4E42FEC
:100D8800EE5F0E94AB0A31F00E94B40A19F00E948B
:100D9800B90A09F451E00CC0E42FE1500E94AB0AF3
:100DA80031F00E94B40A19F00E94B90A09F450E01F
:100DB800AB850A1748F40E94BE0AEF5FF0E00E9474
:100DC8009A0A09F450E006C00E94BE0A0E94A80AC6
:100DD80009F451E0E0E0EE83AE81A330C8F40E944C
:100DE800C50ACF01DE011796EA0FFB1FBF01A3E07A
:100DF8005A9FF001DE015796AE0FBF1FA80FB91F0B
:100E0800AC91E42F0E94320AEE81EF5FEE83E4CFCB
:100E1800AA85A134C0F1E0E0EA87513011F44630E8
:100E280008F002C04F5F19C0503011F4413008F487
:100E380002C0415012C0503019F4AB85A13008F4FB
:100E480003C0EB85E15008C0513019F4AB85A530DB
:100E580008F003C0EB85EF5FEB87E0E0EE83AE813F
:100E6800A33088F40E94C50ADE0117960E94C80ABA
:100E7800AC0FBD1F5D96AC91E42F0E94320AEE8143
:100E8800EF5FEE83ECCF3F5F303210F03F3308F076
:100E98001EC03F5FE0E0EE83AE81A330B8F40E944D
:100EA800C50ACF01DE011C96EA0FFB1FBF01A3E0B4
:100EB8002A9FF001DE019996AE0FBF1FA80FB91F38
:100EC8000E94370AEE81EF5FEE83E6CF4FC03134E0
:100ED80010F40C94B90730E0203011F02130C1F43F
:100EE800E0E0EE83AE81A33098F40E94C50A0F01BA
:100EF800DE011C96EA0FFB1FBF01F001DE01909690
:100F0800AE0FBF1F0E94370AEE81EF5FEE83EACF74
:100F18002330A1F4E0E0EE83AE81A33078F40E94A0
:100F2800C50ADE011C960E94C80AAC0FBD1F969622
:100F38000E94370AEE81EF5FEE83EECF2230A1F4F4
:100F4800E0E0EE83AE81A33078F40E94C50ADE01AA
:100F58001C960E94C80AAC0FBD1F93960E94370AC0
:100F6800EE81EF5FEE83EECF01C03F5F303201F5D7
:100F7800113010F0203009F001C01150163010F473
:100F8800213009F001C01F5F013010F0233009F053
:100F980001C00150053010F4223009F001C00F5F84
:100FA800233011F0223011F4163008F401C015E096
:100FB800E0E0EE83AE81A83080F40E94C50ADF012C
:100FC800E050FE4FBF010080FD01DE011F960E9428
:100FD800880AEE81EF5FEE83EDCFE0E0EE83AE812D
:100FE800A33080F4EE81E00F0E943209BF01008037
:100FF8000E94C50ADE011C960E94880AEE81EF5FF6
:10100800EE83EDCFE0E0EE83AE81A33088F4EE818D
:10101800AB85EA0F0E943209BF0100800E94C50A11
:10102800DE0117960E94880AEE81EF5FEE83ECCF0F
:101038000E948F0A2FCE2397E0E0E883E3E0E9835C
:10104800E8E0EA830E942F0B18E008E030E028E08F
:1010580058E040E0183020F010E00E94CE0A0E2F31
:10106800283020F020E00E94CE0A5E2FA885A83004
:1010780028F0E0E0E8870E94CE0AEF83313118F0CB
:1010880030E01F5F01C03F5F493118F040E02F5F3B
:1010980001C04F5FAE81A63030F0E0E0EE83E88516
:1010A800EF5FE88703C0EE81EF5FEE83E02F0E94D9
:1010B8003209BF010E949909DB01EC93E52F0E94D8
:1010C8003209BF011080E22FA1E00E94F609EF81EA
:1010D8000E943209BF011080E885A1E00E94F6094C
:1010E8000E948F0AB7CF10E0E0E0E5B9EFEFE4B96E
:1010F800EFE7E8B9E0E0E7B9EBB9EFEFEAB91030AC
:1011080069F40E94D6090E94D30AEDEFE093040225
:10111800E1EC0E94DA0A349BA0D851C0113071F476
:101128000E94D609E1E8E0930202E5EE0E94E40A93
:10113800E9EC0E94DA0A349B8BDA41C0123069F478
:101148000E94D6090E94D30AE5EDE0930402E9EA79
:101158000E94DA0A349BD8DB32C0133089F40E942B
:10116800D609E1E8E0930202EDE9E0930302E1E940
:10117800E0930402EDEF0E94DA0A349B1CDD1FC0E5
:10118800143071F40E94D609E1E8E0930202EDED13
:101198000E94E40AE5EA0E94DA0A349B6BDD0FC07C
:1011A800153069F40E94D609E1E8E0930202E9EB00
:1011B8000E94E40AE5EA0E94DA0A349B3CDF0E94B6
:1011C800FC0919F00E94060A51F429D8309B02C084
:1011D800329901C002C0115001C0F7CF0FC00E9460
:1011E800010A19F00E940B0A49F419D8319B02C070
:1011F800339901C002C01F5F01C0F7CF163008F055
:1012080010E07DCFFFCFE0910802F09109026091D4
:101218000A0270910B02ADE6BEE486EC91E40E94EE
:10122800FE0AEE59F8486F4F7F4FE0930802F0939B
:10123800090260930A0270930B02FB01FF7708957D
:10124800E12FF0E0E050FE4FE0810895E095E5B928
:10125800E1E0F0E0FA93EA930C94EA0AF0E0E05057
:10126800FE4F08950F01EF81A885EA0FF0E0089579
:10127800DE01AD56BF4FAE0FBF1FEC91D001EC930E
:101288000895E0910002EF6FE0930002E1E0F2E0E0
:10129800DF01EC91E168EC93E2E0F2E0DF01EC9130
:1012A8000895E168EC93E3E0F2E0DF01EC91E16896
:1012B800EC93E4E0F2E0DF01EC91E168EC93E5E027
:1012C800F2E0DF01EC91E168EC93E6E0F2E0DF01A7
:1012D800EC91E168EC93E7E0F2E0DF01EC91EF6F6D
:1012E800EC93E0E0EE830895E968EC93E3E0F2E044
:1012F800DF01EC91E968EC93E4E0F2E0DF01EC91C6
:10130800E968EC93E5E0F2E0DF01EC91E168EC9349
:10131800E6E0F2E0DF01EC91E968EC93E7E0F2E067
:10132800DF01EC91EF6FEC930895E12FA1E00E94AB
:10133800F60A08950E2EE02FE150F0E0DE011B962C
:10134800AE0FBF1FEC91E0210895E02FE150F0E0CF
:10135800DE011B96EA0FFB1FBF011080E12F0895E5
:10136800E12FE150A1E00E94F60A08950E94F60AD2
:10137800E095E121DB01EC930895E98743E013E070
:1013880006E02FEFEFEFEB87EC87ED87E0E0EF83E8
:101398000895AE0FBF1FEC91D001EC930895BF01E3
:1013A8001080C3CFEFEFE0930002E1E8E093010281
:1013B8000895E0930502EDE9E0930602EFEFE0936C
:1013C8000702E0E0EE830895E7E0F2E0BF01108055
:1013D800E42FA3E00895F0E0DF01E050FE4F0F0195
:1013E800FD0108950E94F60AE129DB01EC930895B6
:1013F800A0E03099A1E0A0300895A0E03199A1E0E3
:10140800A0300895A0E03299A1E0A0300895A0E0AE
:101418003399A1E0A03008950E942401E0E0EF8311
:101428000895AF81EA0F1ACFBF01EF81F0E0DE0126
:101438005096AE0FBF1FAC91E12FE1500E94F60A03
:10144800DB01EC930895E02FF0E00895BF01EF81F0
:10145800F0E0DE015096AE0FBF1F08950E94F60A15
:10146800DB01EC930895AC91E12FF8CFEF81F0E028
:10147800DE0118960895E150F0E00895E52FF0E0B8
:10148800DE011896AE0FBF1FAC910895BF01108002
:10149800E32FA1E06BCF0E940709F0E0AE2FEDE04B
:1014A8000E942C0B5E2FE0E0E9870895E985F0E0C3
:1014B8000895CF01DE011A96EA0FFB1FBF01A3E0D2
:1014C8005A9FF001DE011D96AE0FBF1FA80FB91F6E
:1014D800CACFED5FF0E0DE01D4960895E02FEE5F0D
:1014E800F0E00895DE01D496EA0FFB1F0F01E081BA
:1014F8000895E02FEF5FF0E00895AA85EA2BD00168
:10150800EC9313E000E0C7CFAE0FBF1FEC91E029CA
:10151800DB01EC9308950E9401010C942401E12F52
:10152800EE5FA1E00E94F60A0E2E0895DE011F96D6
:10153800AE0FBF1FEC91E0210895E12FA7E00E94B4
:10154800F60A0E2EE02F0895ED5FF0E0EFCFA1E050
:101558000E94F60A6E2F1E2E0E2EEB85F0E0E6CFC7
:10156800012CEB85EF5FF0E0E1CF062EEB85EE5F17
:10157800F0E0DCCFE42FA3E00E94F60A0E2EEB8504
:101588000895EE81F0E00895EA0FFB1FBF01AE81D8
:10159800B0E008950E940709F0E0E7700895E1E8D7
:1015A800E0930202E5ECE09303020895E09305025C
:1015B800E1E8E0930602EFEFE09307020C941301D1
:1015C800E0930302E5EDE09304020895E991F991AF
:1015D800309639F08AEF90E00197F1F7A8953197A6
:1015E800C9F70895EE230E2EEA2F19F0EE0F0A948C
:1015F800E9F708957A9F702D6B9F700DF89F700D15
:10160800E99F700D6A9F602D710DFB9F600D711D24
:10161800E89F600D711D8827FA9FF02D610D781FD6
:10162800EB9FF00D611D781FEA9FE02DF10D681FFB
:10163800781F0895002498E0AA0F001C0E1A10F4D1
:101648000E0E01C0A1609A95B9F7EA2FA02D089552
:10165800F1DFEA2F08955A934A933A932A931A93FB
:101668000A9308955D814C813B812A811981088103
:101678000895AC0FBD1F05900D928A95E1F7089566
:00000001FF
