:060000000C947E000C943C
:1000060000000C9400000C9400000C9400000C946A
:1000160000000C9400000C9400000C9400000C945A
:1000260000000C9400000C9400000C9400000C944A
:1000360000000C9400000C9400000C9400000C943A
:1000460000000C9400000C9400000C9400000C942A
:1000560000000C9400000C9400000C9400000C941A
:100066000000000303000603020301010101000072
:10007600070202030007040301010001070101034F
:100086000004070302020007010003001000FFFF3F
:10009600FF00030001000603FF010300FFFF20002D
:1000A6000E00100001002D4E414E00000100090215
:1000B600900001000A02920003000B029400010066
:1000C6000E02980001000F029A0004000A009C002C
:1000D60001001E02A00002002002A200010023026D
:1000E600A40001002402A60001002502A8000100C8
:1000F6002702AA000000F894EE27EFBBF1E0F5BF57
:10010600E5BFF8E1A895A4B7A77FA4BFF093600068
:10011600E09360008DE0A2E0BB27ED938A95E9F7B6
:1001260080E094E0A0E0B1E0ED930197E9F7E2EB1F
:10013600F0E085919591009761F0A591B5910590B4
:100146001590BF01F00105900D920197E1F7FB01B3
:10015600F0CFE0E0EEBBEFEFEDBFE4E0EEBFC0E0D6
:10016600D2E00C94C200E0E0E8BBEFEFE7BBEFE7BC
:10017600E5BBE0E0E4BBE2BBEFEFE1BB089510E0D6
:10018600F2DFE12FE03081F40E946604E5ECE093B3
:100196000302EDEFE0930402E1EC0E946F049C99E8
:1001A60002C00E94AE0211C0E13079F40E946604DA
:1001B600E5EEE0930302E5EDE0930402E9EC0E942C
:1001C6006F049C9902C00E942D04A0E09899A1E0BA
:1001D600A03029F0A0E09A99A1E0A03051F435D0E2
:1001E600989B02C09A9901C002C0115001C0F7CF76
:1001F60013C0A0E09999A1E0A03029F0A0E09B9956
:10020600A1E0A03049F421D0999B02C09B9901C07E
:1002160002C01F5F01C0F7CF12300CF010E01030A3
:100226000CF411E0AECFFFCF1A9310E0183060F453
:100236000E947904E2BBE12F0E947F040E9484049D
:10024600EFEFE8BB1F5FF2CF1DC01A930A9300E8D9
:1002560010E0183048F402BB0E947904E0950E9431
:10026600840406951F5FF5CF0991199108951A9395
:1002760010E0183038F4E12F0E948B04A0E0A08330
:100286001F5FF7CF19910895E1E0AE1650F0E3E055
:10029600EA1538F0EFEFEC1521F4A0910802A13031
:1002A6000CF44AC0EB2D0E948F0429F0E1E0CE2E1B
:1002B6000E949B0427C0E0E0EA1518F4E4E0AE16BD
:1002C60008F023C0E1E0ED1529F4EB2DEF5F0E9465
:1002D6008F0409F408C0E1E0CE2EEFEFDE2E0E9477
:1002E6009B04EF5F0FC0EFEFED1529F4EB2DE15006
:1002F6000E948F0409F409C0E1E0CE2EDE2E0E9492
:100306009B04E150A1E00E94A404E0910C02A0919C
:100316000B02EA2BAE2FE0910D02EA2B69F4A091B5
:100326000F02AB3010F0E0E003C0E0910F02ED5F8A
:10033600E0930F020E94AB0408959C9905C0E091DA
:100346000802E250E0930802A0910802A13014F0DE
:100356000C945702A0910F02E0E2EA1BE093080218
:10036600EA2D0E948B04BF011080EB2D0E947F04B2
:10037600E121DB01EC93BB2011F4E1E0DE2EE7E0A6
:10038600BE1610F0EFEFDE2EAA2011F4E1E0CE2E1D
:10039600E6E0EA1531F5E0910902EB1519F0EF5F99
:1003A600EB1519F4EFEFCE2E1CC0E0E0ED1534F49A
:1003B600AB2DAF5FE0910902EA1709F003C0EFEF3A
:1003C600CE2E0EC0E0E0DE163CF4AB2DA150E0913F
:1003D6000902EF5FEA1709F004C0EFEFCE2EE1E065
:1003E600DE2EE7E0AE1610F40C944702E0910E0202
:1003F600E150E0930E02B0900902E6E0AE2EEFEF78
:10040600CE2EA0910E02A230C9F40E94BA04E9E9E8
:10041600E0930202E5E8E0930302E9E8E0930402D0
:10042600E1E90E94C104E0E8F0E0E815F9052CF0E6
:10043600FBDEF40131964F01F6CF19DFA0910E02D3
:10044600A130C1F40E94BA04E9E8E0930202E9E9A6
:10045600E0930302E9E8E09304020E94C104E0E8A5
:10046600F0E0E815F9052CF0DFDEF40131964F01D6
:10047600F6CFFDDEA0910E02A03031F4E3E0E0936A
:100486000E020E94AB04F3DEBB2011F4E1E0DE2E87
:10049600E7E0BE1610F0EFEFDE2EAA2011F4E1E041
:1004A600CE2EAC0CBD0C05C0E0910802E150E093E5
:1004B60008020895A0910A02A030F9F4E0E1E09361
:1004C6000A020E94CC040E94A40498990AC0A09132
:1004D6000902AF5FA73028F4E0910902EF5FE093CD
:1004E6000902999909C0A0910902A13028F0E0916A
:1004F6000902E150E093090205C0E0910A02E150C9
:10050600E0930A020895442455240E94D4047CF002
:10051600F201E050FE4F0F01ABE0B2E0A40DB51DB5
:10052600EC91D001EC93F20131962F01EECFEA2D3A
:100536000E948B04BF011080EB2DA1E00E942F05C5
:10054600E129DB01EC930E94CC040E942F05E129EE
:10055600DB01EC9308958BDE97DEEFDEABDFD3DFB6
:1005660063DEFACFA0912502A03011F00C94FE02B2
:10057600E0E1E0932502989922C0442455240E9484
:10058600D40474F0ABE1B2E0A40DB51DEC91A091DA
:100596002202EA2BE0932202F20131962F01EFCFDD
:1005A600E0912202E07839F4AEE1B2E0ED91FD91FE
:1005B6003196FE93EE93E0E0E093220210C0999903
:1005C6000EC0A0911E02B0911F020E946F053CF45E
:1005D600AEE1B2E0ED91FD913197FE93EE934424A6
:1005E60055240E94D40434F00E94D904F2013196B5
:1005F6002F01F7CF05C0E0912502E150E0932502D7
:100606009C9903C0E1E0E0932602A0912602A13066
:1006160011F49C9901C008C0A0912402AF5F0E940A
:10062600EF04E0E0E09326020895A0912302A030B3
:1006360091F5E0E2E0932302A0911D020E94F504E9
:10064600ED5EFD4FE081EA23F1F00E94F504EE5ED7
:10065600FD4F0E94FA040E94F504EF5EFD4F0E94D2
:1006660003050E94F504E05FFD4F0E940C0544243B
:1006760055240E94D40434F00E94D904F201319624
:100686002F01F7CF07C0A0E2B2E0ED91FD913196C0
:10069600FE93EE9305C0E0912302E150E09323021E
:1006A600A0912302A23030F4A0912002B091210241
:1006B600189709F017C0EAE1F2E00E94FA04E9E1AE
:1006C600F2E00E940305E8E1F2E00E940C054424F2
:1006D60055240E94D40434F00E94D904F2013196C4
:1006E6002F01F7CF0895A0912302A23010F00C94A9
:1006F600F603EAE0F0E02F01E3E0F0E04E165F06D5
:1007060014F40C94E103A0E1B2E0A40DB51DAC9184
:10071600AF3F11F00C94DD0366247724E7E0F0E0A8
:10072600E615F7058CF1F201E05FFD4FBF01108081
:10073600E62D0E947F04E121DB01EC9388249924B5
:10074600E7E0F0E0E815F90564F0D401A050BE4FEB
:10075600F401ED5EFD4FE081EC93F40131964F011B
:10076600EFCF88249924EAE0F0E0E815F90534F0A3
:100776000E941701F40131964F01F5CF0E943A010C
:10078600F30131963F01CACF3201E3E0F0E06E1685
:100796007F066CF0D301A05FBD4FF3013197E05F98
:1007A600FD4FE081EC93F30131973F01EECFEAE094
:1007B600F0E02F01F20131972F019ECFE091120256
:1007C600E03089F044245524EAE0F0E0E415F5052C
:1007D60054F0A0E1B2E0A40DB51DE0E0EC93F20107
:1007E60031962F01F1CF089544245524E7E0F0E037
:1007F600E415F50564F0D201A050BE4FF201ED5E9E
:10080600FD4FE081EC93F20131962F01EFCF4424A6
:1008160055240E94D404ECF0F201A0912002B0917C
:100826002102AE0FBF1FE3E0F0E00E946805EA1B5D
:10083600FB0BE050FE4FBF010080ABE1B2E0A40D20
:10084600B51DEC91E029DB01EC93F20131962F0105
:10085600E0CF08950E943A010E944904F0E0AE2FCD
:100866000E94EF04442455240E94D40434F00E94CC
:10087600D904F20131962F01F7CF74DED6DE33DFCD
:10088600B3DF0E9417010E943A01F7CFE0912702D9
:10089600F09128026091290270912A02ADE6BEE429
:1008A60086EC91E40E943705EE59F8486F4F7F4F6A
:1008B600E0932702F09328026093290270932A029C
:1008C600FB01FF770895EFEFE0930002E1E8E09384
:1008D6000102E09302020895E0930502E1E8E09345
:1008E6000602EFEFE09307020C942801E12FF0E0F7
:1008F600E050FE4FE0810895A1E00E942F05E095AB
:100906000895E8BBE1E0F0E0FA93EA930C9423053E
:10091600F0E0E050FE4F0895A1E00E942F05AE2FB3
:10092600EA2DE150F0E0E55FFD4FE081EA2308950E
:10093600EA2DE150F0E0E55FFD4FBF011080EB2DA1
:1009460008950E942F05E095E121DB01EC930895BF
:10095600E3E0E0930902BE2EE6E0AE2EEFEFCE2EE8
:10096600E0930B02E0930C02E0930D020895EFEF83
:10097600E0930002E1E8E09301020895E0930502A6
:10098600EDE9E0930602EFEFE0930702882499244D
:100996000895E7E0F2E0BF011080E0910902A3E0CC
:1009A6000895E2E0F0E0E415F5050895F201E55E4C
:1009B600FD4FBF01E0912402A3E0EA9FF001E85950
:1009C600FF4FE40DF51DE491AE2FE0911E020E944B
:1009D6002F05DB01EC930895EDE00E946505E09399
:1009E60024020895E0912002F091210208950F015A
:1009F600E081AE2FE0911D02EA2BD001EC93089521
:100A06000F01E081AE2FE0911C02EA2BD001EC939E
:100A160008950F01E081A0911B02EA2BD001EC930F
:100A2600E3E0F0E0E0931E02F0931F02E0E0E093C3
:100A36002002E09321020E944904F0E0AE2FCCCFC1
:100A4600E991F991309639F08AEF90E00197F1F744
:100A5600A8953197C9F70895EE230E2EEA2F19F0BF
:100A6600EE0F0A94E9F708957A9F702D6B9F700D2B
:100A7600F89F700DE99F700D6A9F602D710DFB9FA9
:100A8600600D711DE89F600D711D8827FA9FF02D7E
:100A9600610D781FEB9FF00D611D781FEA9FE02D19
:100AA600F10D681F781F0895002498E0AA0F001C16
:100AB6000E1A10F40E0E01C0A1609A95B9F7EA2F2E
:100AC600A02D0895F1DFEA2F08951B2EBF2FF12DDB
:100AD6001A2EAE2FE12D089500240A160B0608954E
:00000001FF
