:100000005CC0FECFFDCFFCCFFBCFFACFF9CFF8CF4E
:10001000F7CFF6CFF5CFF4CFF3CFF2CFF1CFF0CFCC
:10002000EFCFEECFEDCF0003030006030203010183
:10003000010100000702020300070403010100019F
:100040000701010300040703020200070100030087
:100050001000FFFFFF00030001000603FF01030083
:10006000FFFF20000E00100001002D4E414E000049
:10007000010069014E0001006A01500003006B019C
:10008000520001006E01560001006F01580004008B
:100090000A005A0001007E015E000200800160003B
:1000A00001008301620001008401640001008501F8
:1000B00066000100870168000000F894EE27ECBBA1
:1000C000F1E0FBBFEBBFE5BFF8E1F1BDE1BD8DE0C5
:1000D000A2E0BB27ED938A95E9F780E094E0A0E6E3
:1000E000ED930197E9F7E0E7F0E0859195910097AE
:1000F00061F0A591B59105901590BF01F0010590B3
:100100000D920197E1F7FB01F0CFEFE5EDBFE4E0E1
:10011000EEBFC0E6D1E00CC0E0E0E8BBEFEFE7BB2C
:10012000EFE7E5BBE0E0E4BBE2BBEFEFE1BB089546
:1001300010E0F2DFE12FE03051F4E7D2E5ECEED24F
:10014000EDEFEFD2E1ECF0D29C9B86D10BC0E13019
:1001500049F4DBD2E5EEE2D2E5EDE3D2E9ECE4D21C
:100160009C9BA5D2A0E09899A1E0A03029F0A0E046
:100170009A99A1E0A03051F432D0989B02C09A998C
:1001800001C002C0115001C0F7CF13C0A0E099997F
:10019000A1E0A03029F0A0E09B99A1E0A03049F4B3
:1001A0001ED0999B02C09B9901C002C01F5F01C075
:1001B000F7CF12300CF010E010300CF411E0BACF91
:1001C000FFCF1A9310E0183048F4B7D2E2BBE12F0A
:1001D000BAD2BCD2EFEFE8BB1F5FF5CF18C0DAD3BD
:1001E00000E810E0183030F402BBA7D2AFD2069579
:1001F0001F5FF8CFD2D308951A9310E0183038F467
:10020000E12FABD2ACD2A0E0A0831F5FF7CF199152
:100210000895E1E0AE1650F0E3E0EA1538F0EFEFB4
:10022000EC1521F4A0916801A1300CF443C0EB2D32
:100230008AD298D219F09FD2A1D224C0E0E0EA1568
:1002400018F4E4E0AE1608F01FC0E1E0ED1529F463
:10025000EB2DEF5F78D286D209F406C08CD2EFEF97
:10026000DE2E8CD2EF5F0EC0EFEFED1529F4EB2DF3
:10027000E15069D277D209F407C07DD2E1E0DE2EE9
:100280007DD2E150A1E083D2E0916C01A0916B019D
:10029000EA2BAE2FE0916D01EA2B61F4A0916F0182
:1002A000AB3010F0E0E003C0E0916F01ED5FE09350
:1002B0006F0173D208959C9905C0E0916801E250E6
:1002C000E0936801A0916801A1300CF086C0A09174
:1002D0006F01E0E2EA1BE09368016ED274D2BB20AA
:1002E00011F4E1E0DE2EE7E0BE1610F0EFEFDE2EB7
:1002F000AA2009F440D2E6E0EA1511F569D2EB151F
:1003000021F066D2EF5FEB1511F465D219C0E0E081
:10031000ED152CF4AB2DAF5F5BD2EA1709F003C0EB
:100320005AD2EFEF0CC0E0E0DE1634F4AB2DA15052
:100330004FD2EF5FEA1709F003C04DD2E1E0DE2EA5
:10034000E7E0AE16D8F1E0916E01E150E0936E0166
:10035000B0906901E6E0AE2E3ED2A0916E01A230CF
:1003600081F43CD2E9E9E0936201E5E8D7D1E9E81C
:10037000D8D1E1E93AD244D21CF023DF46D2FBCFF8
:100380003BDFA0916E01A13081F428D2E9E8E0932F
:100390006201E9E9C3D1E9E8C4D1E9E826D230D263
:1003A0001CF00FDF32D2FBCF27DFA0916E01A0300F
:1003B00029F4E3E0E0936E01F0D11EDFBB2011F4DD
:1003C000E1E0DE2EE7E0BE1610F0EFEFDE2EAA2011
:1003D00009F4D1D1AC0CBD0C05C0E0916801E1502D
:1003E000E09368010895A0916A01A030D9F4E0E19A
:1003F000E0936A010ED2CBD1989909C0A09169010E
:10040000AF5FA73020F4E4D1EF5FE09369019999E1
:1004100008C0A0916901A13020F0DAD1E150E09349
:10042000690105C0E0916A01E150E0936A01089515
:10043000F7D1F9D14CF0F20192D10F01ABE6B1E066
:10044000F7D1FAD1FCD1F5CFB7D1E129FCD1E1D177
:100450005DD2E129F8D10895CFDEDBDE2CDFC3DFEA
:10046000E7DFAFDEFACFA0918501A03089F5E0E1AA
:10047000E0938501989919C0D3D1D5D154F0ABE759
:10048000B1E0D6D1A0918201EA2BE0938201D7D1CD
:10049000F4CFE0918201E07821F4D8D13196FE9337
:1004A000EE93E0E0E09382010CC099990AC0A0911C
:1004B0007E01B0917F016AD224F4C8D13197FE93B6
:1004C000EE93AED1B0D11CF0C6D1B9D1FBCF05C0EF
:1004D000E0918501E150E09385019C9903C0E1E042
:1004E000E0938601A0918601A13011F49C9901C08E
:1004F00007C0A0918401AF5FC1D1E0E0E093860125
:100500000895A0918301A03039F5E0E2E0938301E2
:10051000A0917D01B8D1BCD1EA23B1F0B4D1EE589D
:10052000FE4FBAD1BDD1AFD1EF58FE4FB5D1BCD13E
:10053000AAD1E059FE4FBCD1C1D172D174D11CF007
:100540008AD17DD1FBCF07C0A0E8B1E0ED91FD914C
:100550003196FE93EE9305C0E0918301E150E09364
:100560008301A0918301A23018F4B7D1189709F044
:1005700012C0EAE7F1E090D193D1E9E7F1E08CD144
:1005800093D1E8E7F1E094D199D14AD14CD11CF054
:1005900062D155D1FBCF0895A0918301A23008F01C
:1005A00060C0A0D12F01E3E0F0E04E165F060CF42E
:1005B0004AC09BD1AC91AF3F09F041C0662477247B
:1005C000E7E0F0E0E615F7052CF1F201E059FE4F07
:1005D000BF011080E62DB7D0F6D088249924E7E03B
:1005E000F0E0E815F90544F0D401A05ABE4FF4013B
:1005F0004FD1EC930AD1F3CF8824992473D1E81515
:10060000F9051CF0DEDD01D1F9CFF6DDF3013196FD
:100610003F01D6CF3201E3E0F0E06E167F066CF0CA
:10062000D301A059BE4FF3013197E059FE4FE0814D
:10063000EC93F30131973F01EECF54D12F01F2013A
:1006400031972F01B0CFE0917201E03051F0E8D046
:1006500049D1E415F5052CF048D1E0E0EC93EFD05A
:10066000F7CF0895DDD0E7E0F0E0E415F50544F0BC
:10067000D201A05ABE4FF2010BD1EC93E0D0F3CFE0
:10068000CFD0D1D09CF0F20128D1AE0FBF1FE3E054
:10069000F0E075D1EA1BFB0B62D0BF010080ABE735
:1006A000B1E0C6D0E029CFD0CAD0EBCF0895A4DD09
:1006B00010D053D0AE2FE2D0B3D0B5D01CF0CBD0F9
:1006C000BED0FBCFD0DE1DDF67DFCCDF7ADD94DD6F
:1006D000F9CFE0918701F0918801609189017091D3
:1006E0008A01ADE6BEE486EC91E418D1EE59F848F3
:1006F0006F4F7F4FE0938701F093880160938901EA
:1007000070938A01FB01FF770895EFEFE09360019A
:10071000E1E8E0936101E09362010895E0936301F1
:100720000895E09364010895E0936501E1E8E093A2
:100730006601EFEFE093670152CDE12FF0E0E05A60
:10074000FE4FE0810895A1E0E1D00895E095E8BB77
:10075000E1E0F0E0FA93EA93CDC0F0E00895E05ACA
:10076000FE4F0895AE2FEA2DE150F7DFE559FE4F19
:10077000E081EA230895E1E0CE2E0895EA2DE150CC
:10078000ECDFE559FE4FBF011080EB2D0895BED080
:10079000E095E121DB01EC930895E3E0E09369014A
:1007A000BE2EE6E0AE2EEFEFCE2EE0936B01E0938F
:1007B0006C01E0936D010895EA2DCFDFD0DFBF011A
:1007C0001080EB2DC0CFE095E121DB01EC93089583
:1007D000E09169010895EFEFCE2E0895EFEFE093D9
:1007E0006001E1E8E09361010895E0936501EDE9BE
:1007F000E0936601EFEFE093670188249924089560
:10080000E0E8F0E0E815F9050895F40131964F01AC
:100810000895E7E6F1E0BF011080DADFA3E0089574
:10082000442455240895E2E0F0E0E415F505089528
:10083000A40DB51DEC910895D001EC930895F2013B
:1008400031962F010895DB01EC930895AEE7B1E0F6
:10085000ED91FD910895F201E558FE4FBF01E09141
:100860008401A3E0EA9FF001EA5DFF4FE40DF51D6E
:10087000E491AE2FE0917E0149D0E5CFEDE07CD050
:10088000E09384010895E0918001F0918101089541
:10089000ED58FE4FE08108950F01E081AE2F0895DD
:1008A000E0917D01EA2BC8CFE0917C01EA2BC4CF17
:1008B0000F01E081A0917B01EA2BBECFE3E0F0E0E5
:1008C000E0937E01F0937F01E0E0E0938001E0930C
:1008D0008101FFDE42DFAE2FD1CFA0918001B09128
:1008E00081010895EAE0F0E00895A0E7B1E0A40DE9
:1008F000B51D0895E991F991309639F08AEF90E0AD
:100900000197F1F7A8953197C9F70895EE230E2EB8
:10091000EA2F19F0EE0F0A94E9F708957A9F702DE7
:100920006B9F700DF89F700DE99F700D6A9F602D91
:10093000710DFB9F600D711DE89F600D711D882773
:10094000FA9FF02D610D781FEB9FF00D611D781F50
:10095000EA9FE02DF10D681F781F0895002498E0AC
:10096000AA0F001C0E1A10F40E0E01C0A1609A9579
:10097000B9F7EA2FA02D0895F1DFEA2F08951B2E75
:10098000BF2FF12D1A2EAE2FE12D089500240A1647
:100990000B0608951A930A930895099119910895E1
:00000001FF
